{
  "contractName": "NFTContract",
  "abi": [
    {
      "inputs": [],
      "stateMutability": "nonpayable",
      "type": "constructor"
    },
    {
      "anonymous": false,
      "inputs": [
        {
          "indexed": true,
          "internalType": "address",
          "name": "owner",
          "type": "address"
        },
        {
          "indexed": true,
          "internalType": "address",
          "name": "approved",
          "type": "address"
        },
        {
          "indexed": true,
          "internalType": "uint256",
          "name": "tokenId",
          "type": "uint256"
        }
      ],
      "name": "Approval",
      "type": "event"
    },
    {
      "anonymous": false,
      "inputs": [
        {
          "indexed": true,
          "internalType": "address",
          "name": "owner",
          "type": "address"
        },
        {
          "indexed": true,
          "internalType": "address",
          "name": "operator",
          "type": "address"
        },
        {
          "indexed": false,
          "internalType": "bool",
          "name": "approved",
          "type": "bool"
        }
      ],
      "name": "ApprovalForAll",
      "type": "event"
    },
    {
      "anonymous": false,
      "inputs": [
        {
          "indexed": true,
          "internalType": "address",
          "name": "previousOwner",
          "type": "address"
        },
        {
          "indexed": true,
          "internalType": "address",
          "name": "newOwner",
          "type": "address"
        }
      ],
      "name": "OwnershipTransferred",
      "type": "event"
    },
    {
      "anonymous": false,
      "inputs": [
        {
          "indexed": true,
          "internalType": "address",
          "name": "from",
          "type": "address"
        },
        {
          "indexed": true,
          "internalType": "address",
          "name": "to",
          "type": "address"
        },
        {
          "indexed": true,
          "internalType": "uint256",
          "name": "tokenId",
          "type": "uint256"
        }
      ],
      "name": "Transfer",
      "type": "event"
    },
    {
      "inputs": [
        {
          "internalType": "address",
          "name": "to",
          "type": "address"
        },
        {
          "internalType": "uint256",
          "name": "tokenId",
          "type": "uint256"
        }
      ],
      "name": "approve",
      "outputs": [],
      "stateMutability": "nonpayable",
      "type": "function"
    },
    {
      "inputs": [
        {
          "internalType": "address",
          "name": "owner",
          "type": "address"
        }
      ],
      "name": "balanceOf",
      "outputs": [
        {
          "internalType": "uint256",
          "name": "",
          "type": "uint256"
        }
      ],
      "stateMutability": "view",
      "type": "function",
      "constant": true
    },
    {
      "inputs": [
        {
          "internalType": "uint256",
          "name": "tokenId",
          "type": "uint256"
        }
      ],
      "name": "getApproved",
      "outputs": [
        {
          "internalType": "address",
          "name": "",
          "type": "address"
        }
      ],
      "stateMutability": "view",
      "type": "function",
      "constant": true
    },
    {
      "inputs": [
        {
          "internalType": "address",
          "name": "owner",
          "type": "address"
        },
        {
          "internalType": "address",
          "name": "operator",
          "type": "address"
        }
      ],
      "name": "isApprovedForAll",
      "outputs": [
        {
          "internalType": "bool",
          "name": "",
          "type": "bool"
        }
      ],
      "stateMutability": "view",
      "type": "function",
      "constant": true
    },
    {
      "inputs": [],
      "name": "name",
      "outputs": [
        {
          "internalType": "string",
          "name": "",
          "type": "string"
        }
      ],
      "stateMutability": "view",
      "type": "function",
      "constant": true
    },
    {
      "inputs": [],
      "name": "nft_count",
      "outputs": [
        {
          "internalType": "uint256",
          "name": "",
          "type": "uint256"
        }
      ],
      "stateMutability": "view",
      "type": "function",
      "constant": true
    },
    {
      "inputs": [
        {
          "internalType": "uint256",
          "name": "",
          "type": "uint256"
        }
      ],
      "name": "nfts",
      "outputs": [
        {
          "internalType": "uint256",
          "name": "id",
          "type": "uint256"
        },
        {
          "internalType": "string",
          "name": "uri",
          "type": "string"
        },
        {
          "internalType": "address",
          "name": "owner",
          "type": "address"
        },
        {
          "internalType": "bool",
          "name": "is_minted",
          "type": "bool"
        }
      ],
      "stateMutability": "view",
      "type": "function",
      "constant": true
    },
    {
      "inputs": [],
      "name": "owner",
      "outputs": [
        {
          "internalType": "address",
          "name": "",
          "type": "address"
        }
      ],
      "stateMutability": "view",
      "type": "function",
      "constant": true
    },
    {
      "inputs": [
        {
          "internalType": "uint256",
          "name": "tokenId",
          "type": "uint256"
        }
      ],
      "name": "ownerOf",
      "outputs": [
        {
          "internalType": "address",
          "name": "",
          "type": "address"
        }
      ],
      "stateMutability": "view",
      "type": "function",
      "constant": true
    },
    {
      "inputs": [],
      "name": "renounceOwnership",
      "outputs": [],
      "stateMutability": "nonpayable",
      "type": "function"
    },
    {
      "inputs": [
        {
          "internalType": "address",
          "name": "from",
          "type": "address"
        },
        {
          "internalType": "address",
          "name": "to",
          "type": "address"
        },
        {
          "internalType": "uint256",
          "name": "tokenId",
          "type": "uint256"
        }
      ],
      "name": "safeTransferFrom",
      "outputs": [],
      "stateMutability": "nonpayable",
      "type": "function"
    },
    {
      "inputs": [
        {
          "internalType": "address",
          "name": "from",
          "type": "address"
        },
        {
          "internalType": "address",
          "name": "to",
          "type": "address"
        },
        {
          "internalType": "uint256",
          "name": "tokenId",
          "type": "uint256"
        },
        {
          "internalType": "bytes",
          "name": "_data",
          "type": "bytes"
        }
      ],
      "name": "safeTransferFrom",
      "outputs": [],
      "stateMutability": "nonpayable",
      "type": "function"
    },
    {
      "inputs": [
        {
          "internalType": "address",
          "name": "operator",
          "type": "address"
        },
        {
          "internalType": "bool",
          "name": "approved",
          "type": "bool"
        }
      ],
      "name": "setApprovalForAll",
      "outputs": [],
      "stateMutability": "nonpayable",
      "type": "function"
    },
    {
      "inputs": [
        {
          "internalType": "bytes4",
          "name": "interfaceId",
          "type": "bytes4"
        }
      ],
      "name": "supportsInterface",
      "outputs": [
        {
          "internalType": "bool",
          "name": "",
          "type": "bool"
        }
      ],
      "stateMutability": "view",
      "type": "function",
      "constant": true
    },
    {
      "inputs": [],
      "name": "symbol",
      "outputs": [
        {
          "internalType": "string",
          "name": "",
          "type": "string"
        }
      ],
      "stateMutability": "view",
      "type": "function",
      "constant": true
    },
    {
      "inputs": [
        {
          "internalType": "uint256",
          "name": "tokenId",
          "type": "uint256"
        }
      ],
      "name": "tokenURI",
      "outputs": [
        {
          "internalType": "string",
          "name": "",
          "type": "string"
        }
      ],
      "stateMutability": "view",
      "type": "function",
      "constant": true
    },
    {
      "inputs": [
        {
          "internalType": "address",
          "name": "from",
          "type": "address"
        },
        {
          "internalType": "address",
          "name": "to",
          "type": "address"
        },
        {
          "internalType": "uint256",
          "name": "tokenId",
          "type": "uint256"
        }
      ],
      "name": "transferFrom",
      "outputs": [],
      "stateMutability": "nonpayable",
      "type": "function"
    },
    {
      "inputs": [
        {
          "internalType": "address",
          "name": "newOwner",
          "type": "address"
        }
      ],
      "name": "transferOwnership",
      "outputs": [],
      "stateMutability": "nonpayable",
      "type": "function"
    },
    {
      "inputs": [
        {
          "internalType": "string",
          "name": "_URI",
          "type": "string"
        }
      ],
      "name": "mint",
      "outputs": [],
      "stateMutability": "nonpayable",
      "type": "function"
    }
  ],
  "bytecode": "0x60806040523480156200001157600080fd5b506040518060400160405280600781526020017f4e4654466f6f64000000000000000000000000000000000000000000000000008152506040518060400160405280600781526020017f4e4654464f4f4400000000000000000000000000000000000000000000000000815250816000908051906020019062000096929190620001a6565b508060019080519060200190620000af929190620001a6565b505050620000d2620000c6620000d860201b60201c565b620000e060201b60201c565b620002bb565b600033905090565b6000600660009054906101000a900473ffffffffffffffffffffffffffffffffffffffff16905081600660006101000a81548173ffffffffffffffffffffffffffffffffffffffff021916908373ffffffffffffffffffffffffffffffffffffffff1602179055508173ffffffffffffffffffffffffffffffffffffffff168173ffffffffffffffffffffffffffffffffffffffff167f8be0079c531659141344cd1fd0a4f28419497f9722a3daafe3b4186f6b6457e060405160405180910390a35050565b828054620001b49062000285565b90600052602060002090601f016020900481019282620001d8576000855562000224565b82601f10620001f357805160ff191683800117855562000224565b8280016001018555821562000224579182015b828111156200022357825182559160200191906001019062000206565b5b50905062000233919062000237565b5090565b5b808211156200025257600081600090555060010162000238565b5090565b7f4e487b7100000000000000000000000000000000000000000000000000000000600052602260045260246000fd5b600060028204905060018216806200029e57607f821691505b60208210811415620002b557620002b462000256565b5b50919050565b612f2d80620002cb6000396000f3fe608060405234801561001057600080fd5b50600436106101215760003560e01c8063715018a6116100ad578063b88d4fde11610071578063b88d4fde1461030b578063c87b56dd14610327578063d85d3d2714610357578063e985e9c514610373578063f2fde38b146103a357610121565b8063715018a61461028b57806373b0745f146102955780638da5cb5b146102b357806395d89b41146102d1578063a22cb465146102ef57610121565b806323b872dd116100f457806323b872dd146101c0578063265aa621146101dc57806342842e0e1461020f5780636352211e1461022b57806370a082311461025b57610121565b806301ffc9a71461012657806306fdde0314610156578063081812fc14610174578063095ea7b3146101a4575b600080fd5b610140600480360381019061013b9190611c7c565b6103bf565b60405161014d9190611cc4565b60405180910390f35b61015e6104a1565b60405161016b9190611d78565b60405180910390f35b61018e60048036038101906101899190611dd0565b610533565b60405161019b9190611e3e565b60405180910390f35b6101be60048036038101906101b99190611e85565b6105b8565b005b6101da60048036038101906101d59190611ec5565b6106d0565b005b6101f660048036038101906101f19190611dd0565b610730565b6040516102069493929190611f27565b60405180910390f35b61022960048036038101906102249190611ec5565b610815565b005b61024560048036038101906102409190611dd0565b610835565b6040516102529190611e3e565b60405180910390f35b61027560048036038101906102709190611f73565b6108e7565b6040516102829190611fa0565b60405180910390f35b61029361099f565b005b61029d610a27565b6040516102aa9190611fa0565b60405180910390f35b6102bb610a2d565b6040516102c89190611e3e565b60405180910390f35b6102d9610a57565b6040516102e69190611d78565b60405180910390f35b61030960048036038101906103049190611fe7565b610ae9565b005b6103256004803603810190610320919061215c565b610aff565b005b610341600480360381019061033c9190611dd0565b610b61565b60405161034e9190611d78565b60405180910390f35b610371600480360381019061036c9190612280565b610c08565b005b61038d600480360381019061038891906122c9565b610d9b565b60405161039a9190611cc4565b60405180910390f35b6103bd60048036038101906103b89190611f73565b610e2f565b005b60007f80ac58cd000000000000000000000000000000000000000000000000000000007bffffffffffffffffffffffffffffffffffffffffffffffffffffffff1916827bffffffffffffffffffffffffffffffffffffffffffffffffffffffff1916148061048a57507f5b5e139f000000000000000000000000000000000000000000000000000000007bffffffffffffffffffffffffffffffffffffffffffffffffffffffff1916827bffffffffffffffffffffffffffffffffffffffffffffffffffffffff1916145b8061049a575061049982610f27565b5b9050919050565b6060600080546104b090612338565b80601f01602080910402602001604051908101604052809291908181526020018280546104dc90612338565b80156105295780601f106104fe57610100808354040283529160200191610529565b820191906000526020600020905b81548152906001019060200180831161050c57829003601f168201915b5050505050905090565b600061053e82610f91565b61057d576040517f08c379a0000000000000000000000000000000000000000000000000000000008152600401610574906123dc565b60405180910390fd5b6004600083815260200190815260200160002060009054906101000a900473ffffffffffffffffffffffffffffffffffffffff169050919050565b60006105c382610835565b90508073ffffffffffffffffffffffffffffffffffffffff168373ffffffffffffffffffffffffffffffffffffffff161415610634576040517f08c379a000000000000000000000000000000000000000000000000000000000815260040161062b9061246e565b60405180910390fd5b8073ffffffffffffffffffffffffffffffffffffffff16610653610ffd565b73ffffffffffffffffffffffffffffffffffffffff16148061068257506106818161067c610ffd565b610d9b565b5b6106c1576040517f08c379a00000000000000000000000000000000000000000000000000000000081526004016106b890612500565b60405180910390fd5b6106cb8383611005565b505050565b6106e16106db610ffd565b826110be565b610720576040517f08c379a000000000000000000000000000000000000000000000000000000000815260040161071790612592565b60405180910390fd5b61072b83838361119c565b505050565b600860205280600052604060002060009150905080600001549080600101805461075990612338565b80601f016020809104026020016040519081016040528092919081815260200182805461078590612338565b80156107d25780601f106107a7576101008083540402835291602001916107d2565b820191906000526020600020905b8154815290600101906020018083116107b557829003601f168201915b5050505050908060020160009054906101000a900473ffffffffffffffffffffffffffffffffffffffff16908060020160149054906101000a900460ff16905084565b61083083838360405180602001604052806000815250610aff565b505050565b6000806002600084815260200190815260200160002060009054906101000a900473ffffffffffffffffffffffffffffffffffffffff169050600073ffffffffffffffffffffffffffffffffffffffff168173ffffffffffffffffffffffffffffffffffffffff1614156108de576040517f08c379a00000000000000000000000000000000000000000000000000000000081526004016108d590612624565b60405180910390fd5b80915050919050565b60008073ffffffffffffffffffffffffffffffffffffffff168273ffffffffffffffffffffffffffffffffffffffff161415610958576040517f08c379a000000000000000000000000000000000000000000000000000000000815260040161094f906126b6565b60405180910390fd5b600360008373ffffffffffffffffffffffffffffffffffffffff1673ffffffffffffffffffffffffffffffffffffffff168152602001908152602001600020549050919050565b6109a7610ffd565b73ffffffffffffffffffffffffffffffffffffffff166109c5610a2d565b73ffffffffffffffffffffffffffffffffffffffff1614610a1b576040517f08c379a0000000000000000000000000000000000000000000000000000000008152600401610a1290612722565b60405180910390fd5b610a2560006113f8565b565b60075481565b6000600660009054906101000a900473ffffffffffffffffffffffffffffffffffffffff16905090565b606060018054610a6690612338565b80601f0160208091040260200160405190810160405280929190818152602001828054610a9290612338565b8015610adf5780601f10610ab457610100808354040283529160200191610adf565b820191906000526020600020905b815481529060010190602001808311610ac257829003601f168201915b5050505050905090565b610afb610af4610ffd565b83836114be565b5050565b610b10610b0a610ffd565b836110be565b610b4f576040517f08c379a0000000000000000000000000000000000000000000000000000000008152600401610b4690612592565b60405180910390fd5b610b5b8484848461162b565b50505050565b6060610b6c82610f91565b610bab576040517f08c379a0000000000000000000000000000000000000000000000000000000008152600401610ba2906127b4565b60405180910390fd5b6000610bb5611687565b90506000815111610bd55760405180602001604052806000815250610c00565b80610bdf8461169e565b604051602001610bf0929190612810565b6040516020818303038152906040525b915050919050565b610c10610ffd565b73ffffffffffffffffffffffffffffffffffffffff16610c2e610a2d565b73ffffffffffffffffffffffffffffffffffffffff1614610c84576040517f08c379a0000000000000000000000000000000000000000000000000000000008152600401610c7b90612722565b60405180910390fd5b604051806080016040528060075481526020018281526020013373ffffffffffffffffffffffffffffffffffffffff16815260200160011515815250600860006007548152602001908152602001600020600082015181600001556020820151816001019080519060200190610cfb929190611b6d565b5060408201518160020160006101000a81548173ffffffffffffffffffffffffffffffffffffffff021916908373ffffffffffffffffffffffffffffffffffffffff16021790555060608201518160020160146101000a81548160ff021916908315150217905550905050600160076000828254610d799190612863565b92505081905550610d98336001600754610d9391906128b9565b6117ff565b50565b6000600560008473ffffffffffffffffffffffffffffffffffffffff1673ffffffffffffffffffffffffffffffffffffffff16815260200190815260200160002060008373ffffffffffffffffffffffffffffffffffffffff1673ffffffffffffffffffffffffffffffffffffffff16815260200190815260200160002060009054906101000a900460ff16905092915050565b610e37610ffd565b73ffffffffffffffffffffffffffffffffffffffff16610e55610a2d565b73ffffffffffffffffffffffffffffffffffffffff1614610eab576040517f08c379a0000000000000000000000000000000000000000000000000000000008152600401610ea290612722565b60405180910390fd5b600073ffffffffffffffffffffffffffffffffffffffff168173ffffffffffffffffffffffffffffffffffffffff161415610f1b576040517f08c379a0000000000000000000000000000000000000000000000000000000008152600401610f129061295f565b60405180910390fd5b610f24816113f8565b50565b60007f01ffc9a7000000000000000000000000000000000000000000000000000000007bffffffffffffffffffffffffffffffffffffffffffffffffffffffff1916827bffffffffffffffffffffffffffffffffffffffffffffffffffffffff1916149050919050565b60008073ffffffffffffffffffffffffffffffffffffffff166002600084815260200190815260200160002060009054906101000a900473ffffffffffffffffffffffffffffffffffffffff1673ffffffffffffffffffffffffffffffffffffffff1614159050919050565b600033905090565b816004600083815260200190815260200160002060006101000a81548173ffffffffffffffffffffffffffffffffffffffff021916908373ffffffffffffffffffffffffffffffffffffffff160217905550808273ffffffffffffffffffffffffffffffffffffffff1661107883610835565b73ffffffffffffffffffffffffffffffffffffffff167f8c5be1e5ebec7d5bd14f71427d1e84f3dd0314c0f7b2291e5b200ac8c7c3b92560405160405180910390a45050565b60006110c982610f91565b611108576040517f08c379a00000000000000000000000000000000000000000000000000000000081526004016110ff906129f1565b60405180910390fd5b600061111383610835565b90508073ffffffffffffffffffffffffffffffffffffffff168473ffffffffffffffffffffffffffffffffffffffff16148061118257508373ffffffffffffffffffffffffffffffffffffffff1661116a84610533565b73ffffffffffffffffffffffffffffffffffffffff16145b8061119357506111928185610d9b565b5b91505092915050565b8273ffffffffffffffffffffffffffffffffffffffff166111bc82610835565b73ffffffffffffffffffffffffffffffffffffffff1614611212576040517f08c379a000000000000000000000000000000000000000000000000000000000815260040161120990612a83565b60405180910390fd5b600073ffffffffffffffffffffffffffffffffffffffff168273ffffffffffffffffffffffffffffffffffffffff161415611282576040517f08c379a000000000000000000000000000000000000000000000000000000000815260040161127990612b15565b60405180910390fd5b61128d8383836119cd565b611298600082611005565b6001600360008573ffffffffffffffffffffffffffffffffffffffff1673ffffffffffffffffffffffffffffffffffffffff16815260200190815260200160002060008282546112e891906128b9565b925050819055506001600360008473ffffffffffffffffffffffffffffffffffffffff1673ffffffffffffffffffffffffffffffffffffffff168152602001908152602001600020600082825461133f9190612863565b92505081905550816002600083815260200190815260200160002060006101000a81548173ffffffffffffffffffffffffffffffffffffffff021916908373ffffffffffffffffffffffffffffffffffffffff160217905550808273ffffffffffffffffffffffffffffffffffffffff168473ffffffffffffffffffffffffffffffffffffffff167fddf252ad1be2c89b69c2b068fc378daa952ba7f163c4a11628f55a4df523b3ef60405160405180910390a4505050565b6000600660009054906101000a900473ffffffffffffffffffffffffffffffffffffffff16905081600660006101000a81548173ffffffffffffffffffffffffffffffffffffffff021916908373ffffffffffffffffffffffffffffffffffffffff1602179055508173ffffffffffffffffffffffffffffffffffffffff168173ffffffffffffffffffffffffffffffffffffffff167f8be0079c531659141344cd1fd0a4f28419497f9722a3daafe3b4186f6b6457e060405160405180910390a35050565b8173ffffffffffffffffffffffffffffffffffffffff168373ffffffffffffffffffffffffffffffffffffffff16141561152d576040517f08c379a000000000000000000000000000000000000000000000000000000000815260040161152490612b81565b60405180910390fd5b80600560008573ffffffffffffffffffffffffffffffffffffffff1673ffffffffffffffffffffffffffffffffffffffff16815260200190815260200160002060008473ffffffffffffffffffffffffffffffffffffffff1673ffffffffffffffffffffffffffffffffffffffff16815260200190815260200160002060006101000a81548160ff0219169083151502179055508173ffffffffffffffffffffffffffffffffffffffff168373ffffffffffffffffffffffffffffffffffffffff167f17307eab39ab6107e8899845ad3d59bd9653f200f220920489ca2b5937696c318360405161161e9190611cc4565b60405180910390a3505050565b61163684848461119c565b611642848484846119d2565b611681576040517f08c379a000000000000000000000000000000000000000000000000000000000815260040161167890612c13565b60405180910390fd5b50505050565b606060405180602001604052806000815250905090565b606060008214156116e6576040518060400160405280600181526020017f300000000000000000000000000000000000000000000000000000000000000081525090506117fa565b600082905060005b6000821461171857808061170190612c33565b915050600a826117119190612cab565b91506116ee565b60008167ffffffffffffffff81111561173457611733612031565b5b6040519080825280601f01601f1916602001820160405280156117665781602001600182028036833780820191505090505b5090505b600085146117f35760018261177f91906128b9565b9150600a8561178e9190612cdc565b603061179a9190612863565b60f81b8183815181106117b0576117af612d0d565b5b60200101907effffffffffffffffffffffffffffffffffffffffffffffffffffffffffffff1916908160001a905350600a856117ec9190612cab565b945061176a565b8093505050505b919050565b600073ffffffffffffffffffffffffffffffffffffffff168273ffffffffffffffffffffffffffffffffffffffff16141561186f576040517f08c379a000000000000000000000000000000000000000000000000000000000815260040161186690612d88565b60405180910390fd5b61187881610f91565b156118b8576040517f08c379a00000000000000000000000000000000000000000000000000000000081526004016118af90612df4565b60405180910390fd5b6118c4600083836119cd565b6001600360008473ffffffffffffffffffffffffffffffffffffffff1673ffffffffffffffffffffffffffffffffffffffff16815260200190815260200160002060008282546119149190612863565b92505081905550816002600083815260200190815260200160002060006101000a81548173ffffffffffffffffffffffffffffffffffffffff021916908373ffffffffffffffffffffffffffffffffffffffff160217905550808273ffffffffffffffffffffffffffffffffffffffff16600073ffffffffffffffffffffffffffffffffffffffff167fddf252ad1be2c89b69c2b068fc378daa952ba7f163c4a11628f55a4df523b3ef60405160405180910390a45050565b505050565b60006119f38473ffffffffffffffffffffffffffffffffffffffff16611b5a565b15611b4d578373ffffffffffffffffffffffffffffffffffffffff1663150b7a02611a1c610ffd565b8786866040518563ffffffff1660e01b8152600401611a3e9493929190612e69565b6020604051808303816000875af1925050508015611a7a57506040513d601f19601f82011682018060405250810190611a779190612eca565b60015b611afd573d8060008114611aaa576040519150601f19603f3d011682016040523d82523d6000602084013e611aaf565b606091505b50600081511415611af5576040517f08c379a0000000000000000000000000000000000000000000000000000000008152600401611aec90612c13565b60405180910390fd5b805181602001fd5b63150b7a0260e01b7bffffffffffffffffffffffffffffffffffffffffffffffffffffffff1916817bffffffffffffffffffffffffffffffffffffffffffffffffffffffff191614915050611b52565b600190505b949350505050565b600080823b905060008111915050919050565b828054611b7990612338565b90600052602060002090601f016020900481019282611b9b5760008555611be2565b82601f10611bb457805160ff1916838001178555611be2565b82800160010185558215611be2579182015b82811115611be1578251825591602001919060010190611bc6565b5b509050611bef9190611bf3565b5090565b5b80821115611c0c576000816000905550600101611bf4565b5090565b6000604051905090565b600080fd5b600080fd5b60007fffffffff0000000000000000000000000000000000000000000000000000000082169050919050565b611c5981611c24565b8114611c6457600080fd5b50565b600081359050611c7681611c50565b92915050565b600060208284031215611c9257611c91611c1a565b5b6000611ca084828501611c67565b91505092915050565b60008115159050919050565b611cbe81611ca9565b82525050565b6000602082019050611cd96000830184611cb5565b92915050565b600081519050919050565b600082825260208201905092915050565b60005b83811015611d19578082015181840152602081019050611cfe565b83811115611d28576000848401525b50505050565b6000601f19601f8301169050919050565b6000611d4a82611cdf565b611d548185611cea565b9350611d64818560208601611cfb565b611d6d81611d2e565b840191505092915050565b60006020820190508181036000830152611d928184611d3f565b905092915050565b6000819050919050565b611dad81611d9a565b8114611db857600080fd5b50565b600081359050611dca81611da4565b92915050565b600060208284031215611de657611de5611c1a565b5b6000611df484828501611dbb565b91505092915050565b600073ffffffffffffffffffffffffffffffffffffffff82169050919050565b6000611e2882611dfd565b9050919050565b611e3881611e1d565b82525050565b6000602082019050611e536000830184611e2f565b92915050565b611e6281611e1d565b8114611e6d57600080fd5b50565b600081359050611e7f81611e59565b92915050565b60008060408385031215611e9c57611e9b611c1a565b5b6000611eaa85828601611e70565b9250506020611ebb85828601611dbb565b9150509250929050565b600080600060608486031215611ede57611edd611c1a565b5b6000611eec86828701611e70565b9350506020611efd86828701611e70565b9250506040611f0e86828701611dbb565b9150509250925092565b611f2181611d9a565b82525050565b6000608082019050611f3c6000830187611f18565b8181036020830152611f4e8186611d3f565b9050611f5d6040830185611e2f565b611f6a6060830184611cb5565b95945050505050565b600060208284031215611f8957611f88611c1a565b5b6000611f9784828501611e70565b91505092915050565b6000602082019050611fb56000830184611f18565b92915050565b611fc481611ca9565b8114611fcf57600080fd5b50565b600081359050611fe181611fbb565b92915050565b60008060408385031215611ffe57611ffd611c1a565b5b600061200c85828601611e70565b925050602061201d85828601611fd2565b9150509250929050565b600080fd5b600080fd5b7f4e487b7100000000000000000000000000000000000000000000000000000000600052604160045260246000fd5b61206982611d2e565b810181811067ffffffffffffffff8211171561208857612087612031565b5b80604052505050565b600061209b611c10565b90506120a78282612060565b919050565b600067ffffffffffffffff8211156120c7576120c6612031565b5b6120d082611d2e565b9050602081019050919050565b82818337600083830152505050565b60006120ff6120fa846120ac565b612091565b90508281526020810184848401111561211b5761211a61202c565b5b6121268482856120dd565b509392505050565b600082601f83011261214357612142612027565b5b81356121538482602086016120ec565b91505092915050565b6000806000806080858703121561217657612175611c1a565b5b600061218487828801611e70565b945050602061219587828801611e70565b93505060406121a687828801611dbb565b925050606085013567ffffffffffffffff8111156121c7576121c6611c1f565b5b6121d38782880161212e565b91505092959194509250565b600067ffffffffffffffff8211156121fa576121f9612031565b5b61220382611d2e565b9050602081019050919050565b600061222361221e846121df565b612091565b90508281526020810184848401111561223f5761223e61202c565b5b61224a8482856120dd565b509392505050565b600082601f83011261226757612266612027565b5b8135612277848260208601612210565b91505092915050565b60006020828403121561229657612295611c1a565b5b600082013567ffffffffffffffff8111156122b4576122b3611c1f565b5b6122c084828501612252565b91505092915050565b600080604083850312156122e0576122df611c1a565b5b60006122ee85828601611e70565b92505060206122ff85828601611e70565b9150509250929050565b7f4e487b7100000000000000000000000000000000000000000000000000000000600052602260045260246000fd5b6000600282049050600182168061235057607f821691505b6020821081141561236457612363612309565b5b50919050565b7f4552433732313a20617070726f76656420717565727920666f72206e6f6e657860008201527f697374656e7420746f6b656e0000000000000000000000000000000000000000602082015250565b60006123c6602c83611cea565b91506123d18261236a565b604082019050919050565b600060208201905081810360008301526123f5816123b9565b9050919050565b7f4552433732313a20617070726f76616c20746f2063757272656e74206f776e6560008201527f7200000000000000000000000000000000000000000000000000000000000000602082015250565b6000612458602183611cea565b9150612463826123fc565b604082019050919050565b600060208201905081810360008301526124878161244b565b9050919050565b7f4552433732313a20617070726f76652063616c6c6572206973206e6f74206f7760008201527f6e6572206e6f7220617070726f76656420666f7220616c6c0000000000000000602082015250565b60006124ea603883611cea565b91506124f58261248e565b604082019050919050565b60006020820190508181036000830152612519816124dd565b9050919050565b7f4552433732313a207472616e736665722063616c6c6572206973206e6f74206f60008201527f776e6572206e6f7220617070726f766564000000000000000000000000000000602082015250565b600061257c603183611cea565b915061258782612520565b604082019050919050565b600060208201905081810360008301526125ab8161256f565b9050919050565b7f4552433732313a206f776e657220717565727920666f72206e6f6e657869737460008201527f656e7420746f6b656e0000000000000000000000000000000000000000000000602082015250565b600061260e602983611cea565b9150612619826125b2565b604082019050919050565b6000602082019050818103600083015261263d81612601565b9050919050565b7f4552433732313a2062616c616e636520717565727920666f7220746865207a6560008201527f726f206164647265737300000000000000000000000000000000000000000000602082015250565b60006126a0602a83611cea565b91506126ab82612644565b604082019050919050565b600060208201905081810360008301526126cf81612693565b9050919050565b7f4f776e61626c653a2063616c6c6572206973206e6f7420746865206f776e6572600082015250565b600061270c602083611cea565b9150612717826126d6565b602082019050919050565b6000602082019050818103600083015261273b816126ff565b9050919050565b7f4552433732314d657461646174613a2055524920717565727920666f72206e6f60008201527f6e6578697374656e7420746f6b656e0000000000000000000000000000000000602082015250565b600061279e602f83611cea565b91506127a982612742565b604082019050919050565b600060208201905081810360008301526127cd81612791565b9050919050565b600081905092915050565b60006127ea82611cdf565b6127f481856127d4565b9350612804818560208601611cfb565b80840191505092915050565b600061281c82856127df565b915061282882846127df565b91508190509392505050565b7f4e487b7100000000000000000000000000000000000000000000000000000000600052601160045260246000fd5b600061286e82611d9a565b915061287983611d9a565b9250827fffffffffffffffffffffffffffffffffffffffffffffffffffffffffffffffff038211156128ae576128ad612834565b5b828201905092915050565b60006128c482611d9a565b91506128cf83611d9a565b9250828210156128e2576128e1612834565b5b828203905092915050565b7f4f776e61626c653a206e6577206f776e657220697320746865207a65726f206160008201527f6464726573730000000000000000000000000000000000000000000000000000602082015250565b6000612949602683611cea565b9150612954826128ed565b604082019050919050565b600060208201905081810360008301526129788161293c565b9050919050565b7f4552433732313a206f70657261746f7220717565727920666f72206e6f6e657860008201527f697374656e7420746f6b656e0000000000000000000000000000000000000000602082015250565b60006129db602c83611cea565b91506129e68261297f565b604082019050919050565b60006020820190508181036000830152612a0a816129ce565b9050919050565b7f4552433732313a207472616e73666572206f6620746f6b656e2074686174206960008201527f73206e6f74206f776e0000000000000000000000000000000000000000000000602082015250565b6000612a6d602983611cea565b9150612a7882612a11565b604082019050919050565b60006020820190508181036000830152612a9c81612a60565b9050919050565b7f4552433732313a207472616e7366657220746f20746865207a65726f2061646460008201527f7265737300000000000000000000000000000000000000000000000000000000602082015250565b6000612aff602483611cea565b9150612b0a82612aa3565b604082019050919050565b60006020820190508181036000830152612b2e81612af2565b9050919050565b7f4552433732313a20617070726f766520746f2063616c6c657200000000000000600082015250565b6000612b6b601983611cea565b9150612b7682612b35565b602082019050919050565b60006020820190508181036000830152612b9a81612b5e565b9050919050565b7f4552433732313a207472616e7366657220746f206e6f6e20455243373231526560008201527f63656976657220696d706c656d656e7465720000000000000000000000000000602082015250565b6000612bfd603283611cea565b9150612c0882612ba1565b604082019050919050565b60006020820190508181036000830152612c2c81612bf0565b9050919050565b6000612c3e82611d9a565b91507fffffffffffffffffffffffffffffffffffffffffffffffffffffffffffffffff821415612c7157612c70612834565b5b600182019050919050565b7f4e487b7100000000000000000000000000000000000000000000000000000000600052601260045260246000fd5b6000612cb682611d9a565b9150612cc183611d9a565b925082612cd157612cd0612c7c565b5b828204905092915050565b6000612ce782611d9a565b9150612cf283611d9a565b925082612d0257612d01612c7c565b5b828206905092915050565b7f4e487b7100000000000000000000000000000000000000000000000000000000600052603260045260246000fd5b7f4552433732313a206d696e7420746f20746865207a65726f2061646472657373600082015250565b6000612d72602083611cea565b9150612d7d82612d3c565b602082019050919050565b60006020820190508181036000830152612da181612d65565b9050919050565b7f4552433732313a20746f6b656e20616c7265616479206d696e74656400000000600082015250565b6000612dde601c83611cea565b9150612de982612da8565b602082019050919050565b60006020820190508181036000830152612e0d81612dd1565b9050919050565b600081519050919050565b600082825260208201905092915050565b6000612e3b82612e14565b612e458185612e1f565b9350612e55818560208601611cfb565b612e5e81611d2e565b840191505092915050565b6000608082019050612e7e6000830187611e2f565b612e8b6020830186611e2f565b612e986040830185611f18565b8181036060830152612eaa8184612e30565b905095945050505050565b600081519050612ec481611c50565b92915050565b600060208284031215612ee057612edf611c1a565b5b6000612eee84828501612eb5565b9150509291505056fea2646970667358221220cf852ffdcbfa05f92642798ff751685d2d3a385b73b7ec713bb432153dc79b3b64736f6c634300080a0033",
  "immutableReferences": {},
  "source": "// SPDX-License-Identifier: MIT\npragma solidity >=0.4.21 <0.9.0;\n\nimport \"@openzeppelin/contracts/token/ERC721/ERC721.sol\";\nimport \"@openzeppelin/contracts/access/Ownable.sol\";\n\ncontract NFTContract is ERC721, Ownable {\n    uint public nft_count;\n    mapping(uint => NFT) public nfts;\n    // mapping(string => bool) _token_uri_exists;\n\n    struct NFT {\n        uint id;\n        string uri;\n        address owner;\n        bool is_minted;\n    }\n\n    constructor() ERC721(\"NFTFood\", \"NFTFOOD\") public { }\n\n    function mint(string memory _URI) public onlyOwner {\n        // The _mint function already has a mechanism in place to deal with double-minting\n        // require(!_token_uri_exists[_URI], \"This NFT has already been minted\");\n        nfts[nft_count] = NFT(nft_count, _URI, msg.sender, true);\n        nft_count += 1;\n        _mint(msg.sender, nft_count - 1);\n        // _token_uri_exists[_URI] = true;\n    }\n\n    // function toUint(string memory s) internal returns(uint result) {\n    //     bytes memory b = bytes(s);\n    //     uint i;\n    //     result = 0;\n    //     for (i = 0; i < b.length; i++) {\n    //         uint c = uint(b[i]);\n    //         if (c >= 48 && c <= 57) {\n    //             result = result * 10 + (c - 48);\n    //         }\n    //     }\n    // }\n\n    function toString(uint256 value) internal pure returns(string memory) {\n        // Inspired by OraclizeAPI's implementation - MIT license\n        // https://github.com/oraclize/ethereum-api/blob/b42146b063c7d6ee1358846c198246239e9360e8/oraclizeAPI_0.4.25.sol\n        if (value == 0) {\n            return \"0\";\n        }\n\n        uint256 temp = value;\n        uint256 digits;\n        while (temp != 0) {\n            digits++;\n            temp /= 10;\n        }\n        bytes memory buffer = new bytes(digits);\n        while (value != 0) {\n            digits -= 1;\n            buffer[digits] = bytes1(uint8(48 + uint256(value % 10)));\n            value /= 10;\n        }\n        return string(buffer);\n    }\n}",
  "sourcePath": "/home/jas/Documents/dev/Hackathons 2021/IoTexIdeathon2021/src/contracts/NFTContract.sol",
  "compiler": {
    "name": "solc",
    "version": "0.8.10+commit.fc410830.Emscripten.clang"
  },
  "schemaVersion": "3.4.3",
  "updatedAt": "2021-12-10T06:11:44.843Z",
  "networkType": "ethereum",
  "devdoc": {
    "kind": "dev",
    "methods": {
      "approve(address,uint256)": {
        "details": "See {IERC721-approve}."
      },
      "balanceOf(address)": {
        "details": "See {IERC721-balanceOf}."
      },
      "getApproved(uint256)": {
        "details": "See {IERC721-getApproved}."
      },
      "isApprovedForAll(address,address)": {
        "details": "See {IERC721-isApprovedForAll}."
      },
      "name()": {
        "details": "See {IERC721Metadata-name}."
      },
      "owner()": {
        "details": "Returns the address of the current owner."
      },
      "ownerOf(uint256)": {
        "details": "See {IERC721-ownerOf}."
      },
      "renounceOwnership()": {
        "details": "Leaves the contract without owner. It will not be possible to call `onlyOwner` functions anymore. Can only be called by the current owner. NOTE: Renouncing ownership will leave the contract without an owner, thereby removing any functionality that is only available to the owner."
      },
      "safeTransferFrom(address,address,uint256)": {
        "details": "See {IERC721-safeTransferFrom}."
      },
      "safeTransferFrom(address,address,uint256,bytes)": {
        "details": "See {IERC721-safeTransferFrom}."
      },
      "setApprovalForAll(address,bool)": {
        "details": "See {IERC721-setApprovalForAll}."
      },
      "supportsInterface(bytes4)": {
        "details": "See {IERC165-supportsInterface}."
      },
      "symbol()": {
        "details": "See {IERC721Metadata-symbol}."
      },
      "tokenURI(uint256)": {
        "details": "See {IERC721Metadata-tokenURI}."
      },
      "transferFrom(address,address,uint256)": {
        "details": "See {IERC721-transferFrom}."
      },
      "transferOwnership(address)": {
        "details": "Transfers ownership of the contract to a new account (`newOwner`). Can only be called by the current owner."
      }
    },
    "version": 1
  },
  "userdoc": {
    "kind": "user",
    "methods": {},
    "version": 1
  }
}